{
    "_format": "hh-sol-artifact-1",
    "contractName": "NFT",
    "sourceName": "contracts/NFT.sol",
    "abi": [
        {
            "inputs": [],
            "stateMutability": "nonpayable",
            "type": "constructor"
        },
        {
            "anonymous": false,
            "inputs": [
                {
                    "indexed": true,
                    "internalType": "address",
                    "name": "owner",
                    "type": "address"
                },
                {
                    "indexed": true,
                    "internalType": "address",
                    "name": "approved",
                    "type": "address"
                },
                {
                    "indexed": true,
                    "internalType": "uint256",
                    "name": "tokenId",
                    "type": "uint256"
                }
            ],
            "name": "Approval",
            "type": "event"
        },
        {
            "anonymous": false,
            "inputs": [
                {
                    "indexed": true,
                    "internalType": "address",
                    "name": "owner",
                    "type": "address"
                },
                {
                    "indexed": true,
                    "internalType": "address",
                    "name": "operator",
                    "type": "address"
                },
                {
                    "indexed": false,
                    "internalType": "bool",
                    "name": "approved",
                    "type": "bool"
                }
            ],
            "name": "ApprovalForAll",
            "type": "event"
        },
        {
            "anonymous": false,
            "inputs": [
                {
                    "indexed": true,
                    "internalType": "address",
                    "name": "from",
                    "type": "address"
                },
                {
                    "indexed": true,
                    "internalType": "address",
                    "name": "to",
                    "type": "address"
                },
                {
                    "indexed": true,
                    "internalType": "uint256",
                    "name": "tokenId",
                    "type": "uint256"
                }
            ],
            "name": "Transfer",
            "type": "event"
        },
        {
            "inputs": [
                {
                    "internalType": "address",
                    "name": "to",
                    "type": "address"
                },
                {
                    "internalType": "uint256",
                    "name": "tokenId",
                    "type": "uint256"
                }
            ],
            "name": "approve",
            "outputs": [],
            "stateMutability": "nonpayable",
            "type": "function"
        },
        {
            "inputs": [
                {
                    "internalType": "address",
                    "name": "owner",
                    "type": "address"
                }
            ],
            "name": "balanceOf",
            "outputs": [
                {
                    "internalType": "uint256",
                    "name": "",
                    "type": "uint256"
                }
            ],
            "stateMutability": "view",
            "type": "function"
        },
        {
            "inputs": [
                {
                    "internalType": "uint256",
                    "name": "tokenId",
                    "type": "uint256"
                }
            ],
            "name": "getApproved",
            "outputs": [
                {
                    "internalType": "address",
                    "name": "",
                    "type": "address"
                }
            ],
            "stateMutability": "view",
            "type": "function"
        },
        {
            "inputs": [
                {
                    "internalType": "address",
                    "name": "owner",
                    "type": "address"
                },
                {
                    "internalType": "address",
                    "name": "operator",
                    "type": "address"
                }
            ],
            "name": "isApprovedForAll",
            "outputs": [
                {
                    "internalType": "bool",
                    "name": "",
                    "type": "bool"
                }
            ],
            "stateMutability": "view",
            "type": "function"
        },
        {
            "inputs": [],
            "name": "make",
            "outputs": [],
            "stateMutability": "nonpayable",
            "type": "function"
        },
        {
            "inputs": [],
            "name": "name",
            "outputs": [
                {
                    "internalType": "string",
                    "name": "",
                    "type": "string"
                }
            ],
            "stateMutability": "view",
            "type": "function"
        },
        {
            "inputs": [
                {
                    "internalType": "uint256",
                    "name": "tokenId",
                    "type": "uint256"
                }
            ],
            "name": "ownerOf",
            "outputs": [
                {
                    "internalType": "address",
                    "name": "",
                    "type": "address"
                }
            ],
            "stateMutability": "view",
            "type": "function"
        },
        {
            "inputs": [
                {
                    "internalType": "uint256",
                    "name": "tokenId",
                    "type": "uint256"
                }
            ],
            "name": "pickRandomAction",
            "outputs": [
                {
                    "internalType": "string",
                    "name": "",
                    "type": "string"
                }
            ],
            "stateMutability": "view",
            "type": "function"
        },
        {
            "inputs": [
                {
                    "internalType": "uint256",
                    "name": "tokenId",
                    "type": "uint256"
                }
            ],
            "name": "pickRandomFace",
            "outputs": [
                {
                    "internalType": "string",
                    "name": "",
                    "type": "string"
                }
            ],
            "stateMutability": "view",
            "type": "function"
        },
        {
            "inputs": [
                {
                    "internalType": "uint256",
                    "name": "tokenId",
                    "type": "uint256"
                }
            ],
            "name": "pickRandomTarget",
            "outputs": [
                {
                    "internalType": "string",
                    "name": "",
                    "type": "string"
                }
            ],
            "stateMutability": "view",
            "type": "function"
        },
        {
            "inputs": [
                {
                    "internalType": "address",
                    "name": "from",
                    "type": "address"
                },
                {
                    "internalType": "address",
                    "name": "to",
                    "type": "address"
                },
                {
                    "internalType": "uint256",
                    "name": "tokenId",
                    "type": "uint256"
                }
            ],
            "name": "safeTransferFrom",
            "outputs": [],
            "stateMutability": "nonpayable",
            "type": "function"
        },
        {
            "inputs": [
                {
                    "internalType": "address",
                    "name": "from",
                    "type": "address"
                },
                {
                    "internalType": "address",
                    "name": "to",
                    "type": "address"
                },
                {
                    "internalType": "uint256",
                    "name": "tokenId",
                    "type": "uint256"
                },
                {
                    "internalType": "bytes",
                    "name": "_data",
                    "type": "bytes"
                }
            ],
            "name": "safeTransferFrom",
            "outputs": [],
            "stateMutability": "nonpayable",
            "type": "function"
        },
        {
            "inputs": [
                {
                    "internalType": "address",
                    "name": "operator",
                    "type": "address"
                },
                {
                    "internalType": "bool",
                    "name": "approved",
                    "type": "bool"
                }
            ],
            "name": "setApprovalForAll",
            "outputs": [],
            "stateMutability": "nonpayable",
            "type": "function"
        },
        {
            "inputs": [
                {
                    "internalType": "bytes4",
                    "name": "interfaceId",
                    "type": "bytes4"
                }
            ],
            "name": "supportsInterface",
            "outputs": [
                {
                    "internalType": "bool",
                    "name": "",
                    "type": "bool"
                }
            ],
            "stateMutability": "view",
            "type": "function"
        },
        {
            "inputs": [],
            "name": "symbol",
            "outputs": [
                {
                    "internalType": "string",
                    "name": "",
                    "type": "string"
                }
            ],
            "stateMutability": "view",
            "type": "function"
        },
        {
            "inputs": [
                {
                    "internalType": "uint256",
                    "name": "tokenId",
                    "type": "uint256"
                }
            ],
            "name": "tokenURI",
            "outputs": [
                {
                    "internalType": "string",
                    "name": "",
                    "type": "string"
                }
            ],
            "stateMutability": "view",
            "type": "function"
        },
        {
            "inputs": [
                {
                    "internalType": "address",
                    "name": "from",
                    "type": "address"
                },
                {
                    "internalType": "address",
                    "name": "to",
                    "type": "address"
                },
                {
                    "internalType": "uint256",
                    "name": "tokenId",
                    "type": "uint256"
                }
            ],
            "name": "transferFrom",
            "outputs": [],
            "stateMutability": "nonpayable",
            "type": "function"
        }
    ],
    "bytecode": "0x608060405260405180610160016040528061012f81526020016200433f61012f913960089080519060200190620000389291906200067e565b506040518060c001604052806040518060400160405280600481526020017ff09f988d0000000000000000000000000000000000000000000000000000000081525081526020016040518060400160405280600481526020017ff09f98850000000000000000000000000000000000000000000000000000000081525081526020016040518060400160405280600481526020017ff09f98ab0000000000000000000000000000000000000000000000000000000081525081526020016040518060400160405280601181526020017ff09fa799f09f8fbce2808de29982efb88f00000000000000000000000000000081525081526020016040518060400160405280600481526020017ff09f98880000000000000000000000000000000000000000000000000000000081525081526020016040518060400160405280600481526020017ff09f91bd000000000000000000000000000000000000000000000000000000008152508152506009906006620001b69291906200070f565b506040518060c001604052806040518060400160405280600481526020017ff09f91850000000000000000000000000000000000000000000000000000000081525081526020016040518060400160405280600481526020017ff09f998f0000000000000000000000000000000000000000000000000000000081525081526020016040518060400160405280600481526020017ff09f99880000000000000000000000000000000000000000000000000000000081525081526020016040518060400160405280600481526020017ff09f9bb50000000000000000000000000000000000000000000000000000000081525081526020016040518060400160405280600481526020017ff09f92af0000000000000000000000000000000000000000000000000000000081525081526020016040518060400160405280601181526020017ff09f8f84f09f8fbce2808de29982efb88f000000000000000000000000000000815250815250600a906006620003349291906200070f565b506040518060c001604052806040518060400160405280600481526020017ff09f8da50000000000000000000000000000000000000000000000000000000081525081526020016040518060400160405280600481526020017ff09f8d8c0000000000000000000000000000000000000000000000000000000081525081526020016040518060400160405280600481526020017ff09faa900000000000000000000000000000000000000000000000000000000081525081526020016040518060400160405280600481526020017ff09f8cb50000000000000000000000000000000000000000000000000000000081525081526020016040518060400160405280600481526020017ff09fa6840000000000000000000000000000000000000000000000000000000081525081526020016040518060400160405280600481526020017ff09f908d00000000000000000000000000000000000000000000000000000000815250815250600b906006620004b29291906200070f565b50348015620004c057600080fd5b506040518060400160405280600b81526020017f547269706c65456d6f6a690000000000000000000000000000000000000000008152506040518060400160405280600781526020017f5452494d4f4a49000000000000000000000000000000000000000000000000008152508160009080519060200190620005459291906200067e565b5080600190805190602001906200055e9291906200067e565b505050620005ac6040518060400160405280601e81526020017f54686973206973206d79204e465420636f6e74726163742e2057686f61210000815250620005b260201b6200120f1760201c565b62000930565b6200065281604051602401620005c9919062000844565b6040516020818303038152906040527f41304fac000000000000000000000000000000000000000000000000000000007bffffffffffffffffffffffffffffffffffffffffffffffffffffffff19166020820180517bffffffffffffffffffffffffffffffffffffffffffffffffffffffff83818316178352505050506200065560201b60201c565b50565b60008151905060006a636f6e736f6c652e6c6f679050602083016000808483855afa5050505050565b8280546200068c90620008ba565b90600052602060002090601f016020900481019282620006b05760008555620006fc565b82601f10620006cb57805160ff1916838001178555620006fc565b82800160010185558215620006fc579182015b82811115620006fb578251825591602001919060010190620006de565b5b5090506200070b919062000776565b5090565b82805482825590600052602060002090810192821562000763579160200282015b8281111562000762578251829080519060200190620007519291906200067e565b509160200191906001019062000730565b5b50905062000772919062000795565b5090565b5b808211156200079157600081600090555060010162000777565b5090565b5b80821115620007b95760008181620007af9190620007bd565b5060010162000796565b5090565b508054620007cb90620008ba565b6000825580601f10620007df575062000800565b601f016020900490600052602060002090810190620007ff919062000776565b5b50565b6000620008108262000868565b6200081c818562000873565b93506200082e81856020860162000884565b62000839816200091f565b840191505092915050565b6000602082019050818103600083015262000860818462000803565b905092915050565b600081519050919050565b600082825260208201905092915050565b60005b83811015620008a457808201518184015260208101905062000887565b83811115620008b4576000848401525b50505050565b60006002820490506001821680620008d357607f821691505b60208210811415620008ea57620008e9620008f0565b5b50919050565b7f4e487b7100000000000000000000000000000000000000000000000000000000600052602260045260246000fd5b6000601f19601f8301169050919050565b6139ff80620009406000396000f3fe608060405234801561001057600080fd5b506004361061010b5760003560e01c806370a08231116100a2578063ab1b1ddb11610071578063ab1b1ddb146102dc578063b88d4fde1461030c578063c6dad08214610328578063c87b56dd14610332578063e985e9c5146103625761010b565b806370a0823114610242578063742837071461027257806395d89b41146102a2578063a22cb465146102c05761010b565b8063095ea7b3116100de578063095ea7b3146101be57806323b872dd146101da57806342842e0e146101f65780636352211e146102125761010b565b806301ffc9a7146101105780630670cd961461014057806306fdde0314610170578063081812fc1461018e575b600080fd5b61012a600480360381019061012591906124a2565b610392565b6040516101379190612bc8565b60405180910390f35b61015a600480360381019061015591906124f4565b610474565b6040516101679190612be3565b60405180910390f35b610178610592565b6040516101859190612be3565b60405180910390f35b6101a860048036038101906101a391906124f4565b610624565b6040516101b59190612b61565b60405180910390f35b6101d860048036038101906101d39190612466565b6106a9565b005b6101f460048036038101906101ef9190612360565b6107c1565b005b610210600480360381019061020b9190612360565b610821565b005b61022c600480360381019061022791906124f4565b610841565b6040516102399190612b61565b60405180910390f35b61025c600480360381019061025791906122fb565b6108f3565b6040516102699190612e43565b60405180910390f35b61028c600480360381019061028791906124f4565b6109ab565b6040516102999190612be3565b60405180910390f35b6102aa610ac9565b6040516102b79190612be3565b60405180910390f35b6102da60048036038101906102d5919061242a565b610b5b565b005b6102f660048036038101906102f191906124f4565b610cdc565b6040516103039190612be3565b60405180910390f35b610326600480360381019061032191906123af565b610dfa565b005b610330610e5c565b005b61034c600480360381019061034791906124f4565b611029565b6040516103599190612be3565b60405180910390f35b61037c60048036038101906103779190612324565b61117b565b6040516103899190612bc8565b60405180910390f35b60007f80ac58cd000000000000000000000000000000000000000000000000000000007bffffffffffffffffffffffffffffffffffffffffffffffffffffffff1916827bffffffffffffffffffffffffffffffffffffffffffffffffffffffff1916148061045d57507f5b5e139f000000000000000000000000000000000000000000000000000000007bffffffffffffffffffffffffffffffffffffffffffffffffffffffff1916827bffffffffffffffffffffffffffffffffffffffffffffffffffffffff1916145b8061046d575061046c826112a8565b5b9050919050565b606060006104a861048484611312565b6040516020016104949190612ab6565b6040516020818303038152906040526114bf565b9050600b80549050816104bb9190613183565b9050600b81815481106104f7577f4e487b7100000000000000000000000000000000000000000000000000000000600052603260045260246000fd5b90600052602060002001805461050c906130d7565b80601f0160208091040260200160405190810160405280929190818152602001828054610538906130d7565b80156105855780601f1061055a57610100808354040283529160200191610585565b820191906000526020600020905b81548152906001019060200180831161056857829003601f168201915b5050505050915050919050565b6060600080546105a1906130d7565b80601f01602080910402602001604051908101604052809291908181526020018280546105cd906130d7565b801561061a5780601f106105ef5761010080835404028352916020019161061a565b820191906000526020600020905b8154815290600101906020018083116105fd57829003601f168201915b5050505050905090565b600061062f826114f2565b61066e576040517f08c379a000000000000000000000000000000000000000000000000000000000815260040161066590612da3565b60405180910390fd5b6004600083815260200190815260200160002060009054906101000a900473ffffffffffffffffffffffffffffffffffffffff169050919050565b60006106b482610841565b90508073ffffffffffffffffffffffffffffffffffffffff168373ffffffffffffffffffffffffffffffffffffffff161415610725576040517f08c379a000000000000000000000000000000000000000000000000000000000815260040161071c90612e03565b60405180910390fd5b8073ffffffffffffffffffffffffffffffffffffffff1661074461155e565b73ffffffffffffffffffffffffffffffffffffffff16148061077357506107728161076d61155e565b61117b565b5b6107b2576040517f08c379a00000000000000000000000000000000000000000000000000000000081526004016107a990612ce3565b60405180910390fd5b6107bc8383611566565b505050565b6107d26107cc61155e565b8261161f565b610811576040517f08c379a000000000000000000000000000000000000000000000000000000000815260040161080890612e23565b60405180910390fd5b61081c8383836116fd565b505050565b61083c83838360405180602001604052806000815250610dfa565b505050565b6000806002600084815260200190815260200160002060009054906101000a900473ffffffffffffffffffffffffffffffffffffffff169050600073ffffffffffffffffffffffffffffffffffffffff168173ffffffffffffffffffffffffffffffffffffffff1614156108ea576040517f08c379a00000000000000000000000000000000000000000000000000000000081526004016108e190612d23565b60405180910390fd5b80915050919050565b60008073ffffffffffffffffffffffffffffffffffffffff168273ffffffffffffffffffffffffffffffffffffffff161415610964576040517f08c379a000000000000000000000000000000000000000000000000000000000815260040161095b90612d03565b60405180910390fd5b600360008373ffffffffffffffffffffffffffffffffffffffff1673ffffffffffffffffffffffffffffffffffffffff168152602001908152602001600020549050919050565b606060006109df6109bb84611312565b6040516020016109cb9190612a72565b6040516020818303038152906040526114bf565b9050600980549050816109f29190613183565b905060098181548110610a2e577f4e487b7100000000000000000000000000000000000000000000000000000000600052603260045260246000fd5b906000526020600020018054610a43906130d7565b80601f0160208091040260200160405190810160405280929190818152602001828054610a6f906130d7565b8015610abc5780601f10610a9157610100808354040283529160200191610abc565b820191906000526020600020905b815481529060010190602001808311610a9f57829003601f168201915b5050505050915050919050565b606060018054610ad8906130d7565b80601f0160208091040260200160405190810160405280929190818152602001828054610b04906130d7565b8015610b515780601f10610b2657610100808354040283529160200191610b51565b820191906000526020600020905b815481529060010190602001808311610b3457829003601f168201915b5050505050905090565b610b6361155e565b73ffffffffffffffffffffffffffffffffffffffff168273ffffffffffffffffffffffffffffffffffffffff161415610bd1576040517f08c379a0000000000000000000000000000000000000000000000000000000008152600401610bc890612ca3565b60405180910390fd5b8060056000610bde61155e565b73ffffffffffffffffffffffffffffffffffffffff1673ffffffffffffffffffffffffffffffffffffffff16815260200190815260200160002060008473ffffffffffffffffffffffffffffffffffffffff1673ffffffffffffffffffffffffffffffffffffffff16815260200190815260200160002060006101000a81548160ff0219169083151502179055508173ffffffffffffffffffffffffffffffffffffffff16610c8b61155e565b73ffffffffffffffffffffffffffffffffffffffff167f17307eab39ab6107e8899845ad3d59bd9653f200f220920489ca2b5937696c3183604051610cd09190612bc8565b60405180910390a35050565b60606000610d10610cec84611312565b604051602001610cfc9190612b3f565b6040516020818303038152906040526114bf565b9050600a8054905081610d239190613183565b9050600a8181548110610d5f577f4e487b7100000000000000000000000000000000000000000000000000000000600052603260045260246000fd5b906000526020600020018054610d74906130d7565b80601f0160208091040260200160405190810160405280929190818152602001828054610da0906130d7565b8015610ded5780601f10610dc257610100808354040283529160200191610ded565b820191906000526020600020905b815481529060010190602001808311610dd057829003601f168201915b5050505050915050919050565b610e0b610e0561155e565b8361161f565b610e4a576040517f08c379a0000000000000000000000000000000000000000000000000000000008152600401610e4190612e23565b60405180910390fd5b610e5684848484611959565b50505050565b6000610e6860076119b5565b90506000610e75826109ab565b90506000610e8283610cdc565b90506000610e8f84610474565b90506000838383604051602001610ea893929190612a12565b60405160208183030381529060405290506000600882604051602001610ecf929190612a43565b60405160208183030381529060405290506000610f1483610eef846119c3565b604051602001610f00929190612ad8565b6040516020818303038152906040526119c3565b9050600081604051602001610f299190612b1d565b6040516020818303038152906040529050610f786040518060400160405280601581526020017f0a2d2d2d2d2d2d2d2d2d2d2d2d2d2d2d2d2d2d2d2d000000000000000000000081525061120f565b610fa081604051602001610f8c9190612a94565b60405160208183030381529060405261120f565b610fde6040518060400160405280601581526020017f2d2d2d2d2d2d2d2d2d2d2d2d2d2d2d2d2d2d2d2d0a000000000000000000000081525061120f565b610fe83389611b81565b610ff28882611b9f565b611015604051806060016040528060258152602001613965602591398933611c13565b61101f6007611cb2565b5050505050505050565b6060611034826114f2565b611073576040517f08c379a000000000000000000000000000000000000000000000000000000000815260040161106a90612d83565b60405180910390fd5b6000600660008481526020019081526020016000208054611093906130d7565b80601f01602080910402602001604051908101604052809291908181526020018280546110bf906130d7565b801561110c5780601f106110e15761010080835404028352916020019161110c565b820191906000526020600020905b8154815290600101906020018083116110ef57829003601f168201915b50505050509050600061111d611cc8565b9050600081511415611133578192505050611176565b6000825111156111685780826040516020016111509291906129ee565b60405160208183030381529060405292505050611176565b61117184611cdf565b925050505b919050565b6000600560008473ffffffffffffffffffffffffffffffffffffffff1673ffffffffffffffffffffffffffffffffffffffff16815260200190815260200160002060008373ffffffffffffffffffffffffffffffffffffffff1673ffffffffffffffffffffffffffffffffffffffff16815260200190815260200160002060009054906101000a900460ff16905092915050565b6112a5816040516024016112239190612be3565b6040516020818303038152906040527f41304fac000000000000000000000000000000000000000000000000000000007bffffffffffffffffffffffffffffffffffffffffffffffffffffffff19166020820180517bffffffffffffffffffffffffffffffffffffffffffffffffffffffff8381831617835250505050611d86565b50565b60007f01ffc9a7000000000000000000000000000000000000000000000000000000007bffffffffffffffffffffffffffffffffffffffffffffffffffffffff1916827bffffffffffffffffffffffffffffffffffffffffffffffffffffffff1916149050919050565b6060600082141561135a576040518060400160405280600181526020017f300000000000000000000000000000000000000000000000000000000000000081525090506114ba565b600082905060005b6000821461138c5780806113759061313a565b915050600a826113859190612f62565b9150611362565b60008167ffffffffffffffff8111156113ce577f4e487b7100000000000000000000000000000000000000000000000000000000600052604160045260246000fd5b6040519080825280601f01601f1916602001820160405280156114005781602001600182028036833780820191505090505b5090505b600085146114b3576001826114199190612fed565b9150600a856114289190613183565b60306114349190612f0c565b60f81b818381518110611470577f4e487b7100000000000000000000000000000000000000000000000000000000600052603260045260246000fd5b60200101907effffffffffffffffffffffffffffffffffffffffffffffffffffffffffffff1916908160001a905350600a856114ac9190612f62565b9450611404565b8093505050505b919050565b6000816040516020016114d291906129d7565b6040516020818303038152906040528051906020012060001c9050919050565b60008073ffffffffffffffffffffffffffffffffffffffff166002600084815260200190815260200160002060009054906101000a900473ffffffffffffffffffffffffffffffffffffffff1673ffffffffffffffffffffffffffffffffffffffff1614159050919050565b600033905090565b816004600083815260200190815260200160002060006101000a81548173ffffffffffffffffffffffffffffffffffffffff021916908373ffffffffffffffffffffffffffffffffffffffff160217905550808273ffffffffffffffffffffffffffffffffffffffff166115d983610841565b73ffffffffffffffffffffffffffffffffffffffff167f8c5be1e5ebec7d5bd14f71427d1e84f3dd0314c0f7b2291e5b200ac8c7c3b92560405160405180910390a45050565b600061162a826114f2565b611669576040517f08c379a000000000000000000000000000000000000000000000000000000000815260040161166090612cc3565b60405180910390fd5b600061167483610841565b90508073ffffffffffffffffffffffffffffffffffffffff168473ffffffffffffffffffffffffffffffffffffffff1614806116e357508373ffffffffffffffffffffffffffffffffffffffff166116cb84610624565b73ffffffffffffffffffffffffffffffffffffffff16145b806116f457506116f3818561117b565b5b91505092915050565b8273ffffffffffffffffffffffffffffffffffffffff1661171d82610841565b73ffffffffffffffffffffffffffffffffffffffff1614611773576040517f08c379a000000000000000000000000000000000000000000000000000000000815260040161176a90612dc3565b60405180910390fd5b600073ffffffffffffffffffffffffffffffffffffffff168273ffffffffffffffffffffffffffffffffffffffff1614156117e3576040517f08c379a00000000000000000000000000000000000000000000000000000000081526004016117da90612c83565b60405180910390fd5b6117ee838383611daf565b6117f9600082611566565b6001600360008573ffffffffffffffffffffffffffffffffffffffff1673ffffffffffffffffffffffffffffffffffffffff16815260200190815260200160002060008282546118499190612fed565b925050819055506001600360008473ffffffffffffffffffffffffffffffffffffffff1673ffffffffffffffffffffffffffffffffffffffff16815260200190815260200160002060008282546118a09190612f0c565b92505081905550816002600083815260200190815260200160002060006101000a81548173ffffffffffffffffffffffffffffffffffffffff021916908373ffffffffffffffffffffffffffffffffffffffff160217905550808273ffffffffffffffffffffffffffffffffffffffff168473ffffffffffffffffffffffffffffffffffffffff167fddf252ad1be2c89b69c2b068fc378daa952ba7f163c4a11628f55a4df523b3ef60405160405180910390a4505050565b6119648484846116fd565b61197084848484611db4565b6119af576040517f08c379a00000000000000000000000000000000000000000000000000000000081526004016119a690612c43565b60405180910390fd5b50505050565b600081600001549050919050565b606060008251905060008114156119ec5760405180602001604052806000815250915050611b7c565b600060036002836119fd9190612f0c565b611a079190612f62565b6004611a139190612f93565b90506000602082611a249190612f0c565b67ffffffffffffffff811115611a63577f4e487b7100000000000000000000000000000000000000000000000000000000600052604160045260246000fd5b6040519080825280601f01601f191660200182016040528015611a955781602001600182028036833780820191505090505b509050600060405180606001604052806040815260200161398a604091399050600181016020830160005b86811015611b395760038101905062ffffff818a015116603f8160121c168401518060081b905060ff603f83600c1c1686015116810190508060081b905060ff603f8360061c1686015116810190508060081b905060ff603f831686015116810190508060e01b90508084526004840193505050611ac0565b506003860660018114611b535760028114611b6357611b6e565b613d3d60f01b6002830352611b6e565b603d60f81b60018303525b508484525050819450505050505b919050565b611b9b828260405180602001604052806000815250611f4b565b5050565b611ba8826114f2565b611be7576040517f08c379a0000000000000000000000000000000000000000000000000000000008152600401611bde90612d43565b60405180910390fd5b80600660008481526020019081526020016000209080519060200190611c0e929190612187565b505050565b611cad838383604051602401611c2b93929190612c05565b6040516020818303038152906040527fe3849f79000000000000000000000000000000000000000000000000000000007bffffffffffffffffffffffffffffffffffffffffffffffffffffffff19166020820180517bffffffffffffffffffffffffffffffffffffffffffffffffffffffff8381831617835250505050611d86565b505050565b6001816000016000828254019250508190555050565b606060405180602001604052806000815250905090565b6060611cea826114f2565b611d29576040517f08c379a0000000000000000000000000000000000000000000000000000000008152600401611d2090612de3565b60405180910390fd5b6000611d33611cc8565b90506000815111611d535760405180602001604052806000815250611d7e565b80611d5d84611312565b604051602001611d6e9291906129ee565b6040516020818303038152906040525b915050919050565b60008151905060006a636f6e736f6c652e6c6f679050602083016000808483855afa5050505050565b505050565b6000611dd58473ffffffffffffffffffffffffffffffffffffffff16611fa6565b15611f3e578373ffffffffffffffffffffffffffffffffffffffff1663150b7a02611dfe61155e565b8786866040518563ffffffff1660e01b8152600401611e209493929190612b7c565b602060405180830381600087803b158015611e3a57600080fd5b505af1925050508015611e6b57506040513d601f19601f82011682018060405250810190611e6891906124cb565b60015b611eee573d8060008114611e9b576040519150601f19603f3d011682016040523d82523d6000602084013e611ea0565b606091505b50600081511415611ee6576040517f08c379a0000000000000000000000000000000000000000000000000000000008152600401611edd90612c43565b60405180910390fd5b805181602001fd5b63150b7a0260e01b7bffffffffffffffffffffffffffffffffffffffffffffffffffffffff1916817bffffffffffffffffffffffffffffffffffffffffffffffffffffffff191614915050611f43565b600190505b949350505050565b611f558383611fb9565b611f626000848484611db4565b611fa1576040517f08c379a0000000000000000000000000000000000000000000000000000000008152600401611f9890612c43565b60405180910390fd5b505050565b600080823b905060008111915050919050565b600073ffffffffffffffffffffffffffffffffffffffff168273ffffffffffffffffffffffffffffffffffffffff161415612029576040517f08c379a000000000000000000000000000000000000000000000000000000000815260040161202090612d63565b60405180910390fd5b612032816114f2565b15612072576040517f08c379a000000000000000000000000000000000000000000000000000000000815260040161206990612c63565b60405180910390fd5b61207e60008383611daf565b6001600360008473ffffffffffffffffffffffffffffffffffffffff1673ffffffffffffffffffffffffffffffffffffffff16815260200190815260200160002060008282546120ce9190612f0c565b92505081905550816002600083815260200190815260200160002060006101000a81548173ffffffffffffffffffffffffffffffffffffffff021916908373ffffffffffffffffffffffffffffffffffffffff160217905550808273ffffffffffffffffffffffffffffffffffffffff16600073ffffffffffffffffffffffffffffffffffffffff167fddf252ad1be2c89b69c2b068fc378daa952ba7f163c4a11628f55a4df523b3ef60405160405180910390a45050565b828054612193906130d7565b90600052602060002090601f0160209004810192826121b557600085556121fc565b82601f106121ce57805160ff19168380011785556121fc565b828001600101855582156121fc579182015b828111156121fb5782518255916020019190600101906121e0565b5b509050612209919061220d565b5090565b5b8082111561222657600081600090555060010161220e565b5090565b600061223d61223884612e83565b612e5e565b90508281526020810184848401111561225557600080fd5b612260848285613095565b509392505050565b60008135905061227781613908565b92915050565b60008135905061228c8161391f565b92915050565b6000813590506122a181613936565b92915050565b6000815190506122b681613936565b92915050565b600082601f8301126122cd57600080fd5b81356122dd84826020860161222a565b91505092915050565b6000813590506122f58161394d565b92915050565b60006020828403121561230d57600080fd5b600061231b84828501612268565b91505092915050565b6000806040838503121561233757600080fd5b600061234585828601612268565b925050602061235685828601612268565b9150509250929050565b60008060006060848603121561237557600080fd5b600061238386828701612268565b935050602061239486828701612268565b92505060406123a5868287016122e6565b9150509250925092565b600080600080608085870312156123c557600080fd5b60006123d387828801612268565b94505060206123e487828801612268565b93505060406123f5878288016122e6565b925050606085013567ffffffffffffffff81111561241257600080fd5b61241e878288016122bc565b91505092959194509250565b6000806040838503121561243d57600080fd5b600061244b85828601612268565b925050602061245c8582860161227d565b9150509250929050565b6000806040838503121561247957600080fd5b600061248785828601612268565b9250506020612498858286016122e6565b9150509250929050565b6000602082840312156124b457600080fd5b60006124c284828501612292565b91505092915050565b6000602082840312156124dd57600080fd5b60006124eb848285016122a7565b91505092915050565b60006020828403121561250657600080fd5b6000612514848285016122e6565b91505092915050565b61252681613021565b82525050565b61253581613033565b82525050565b600061254682612ec9565b6125508185612edf565b93506125608185602086016130a4565b61256981613270565b840191505092915050565b600061257f82612ed4565b6125898185612ef0565b93506125998185602086016130a4565b6125a281613270565b840191505092915050565b60006125b882612ed4565b6125c28185612f01565b93506125d28185602086016130a4565b80840191505092915050565b600081546125eb816130d7565b6125f58186612f01565b94506001821660008114612610576001811461262157612654565b60ff19831686528186019350612654565b61262a85612eb4565b60005b8381101561264c5781548189015260018201915060208101905061262d565b838801955050505b50505092915050565b600061266a600b83612f01565b915061267582613281565b600b82019050919050565b600061268d602583612f01565b9150612698826132aa565b602582019050919050565b60006126b0603283612ef0565b91506126bb826132f9565b604082019050919050565b60006126d3601c83612ef0565b91506126de82613348565b602082019050919050565b60006126f6602483612ef0565b915061270182613371565b604082019050919050565b6000612719601983612ef0565b9150612724826133c0565b602082019050919050565b600061273c602c83612ef0565b9150612747826133e9565b604082019050919050565b600061275f600b83612f01565b915061276a82613438565b600b82019050919050565b6000612782600d83612f01565b915061278d82613461565b600d82019050919050565b60006127a5603883612ef0565b91506127b08261348a565b604082019050919050565b60006127c8602a83612ef0565b91506127d3826134d9565b604082019050919050565b60006127eb602983612ef0565b91506127f682613528565b604082019050919050565b600061280e602e83612ef0565b915061281982613577565b604082019050919050565b6000612831600283612f01565b915061283c826135c6565b600282019050919050565b6000612854602083612ef0565b915061285f826135ef565b602082019050919050565b6000612877603183612ef0565b915061288282613618565b604082019050919050565b600061289a602c83612ef0565b91506128a582613667565b604082019050919050565b60006128bd606283612f01565b91506128c8826136b6565b606282019050919050565b60006128e0602983612ef0565b91506128eb82613751565b604082019050919050565b6000612903602f83612ef0565b915061290e826137a0565b604082019050919050565b6000612926600a83612f01565b9150612931826137ef565b600a82019050919050565b6000612949602183612ef0565b915061295482613818565b604082019050919050565b600061296c601d83612f01565b915061297782613867565b601d82019050919050565b600061298f603183612ef0565b915061299a82613890565b604082019050919050565b60006129b2600c83612f01565b91506129bd826138df565b600c82019050919050565b6129d18161308b565b82525050565b60006129e382846125ad565b915081905092915050565b60006129fa82856125ad565b9150612a0682846125ad565b91508190509392505050565b6000612a1e82866125ad565b9150612a2a82856125ad565b9150612a3682846125ad565b9150819050949350505050565b6000612a4f82856125de565b9150612a5b82846125ad565b9150612a6682612775565b91508190509392505050565b6000612a7d8261265d565b9150612a8982846125ad565b915081905092915050565b6000612a9f82612680565b9150612aab82846125ad565b915081905092915050565b6000612ac182612752565b9150612acd82846125ad565b915081905092915050565b6000612ae382612919565b9150612aef82856125ad565b9150612afa826128b0565b9150612b0682846125ad565b9150612b1182612824565b91508190509392505050565b6000612b288261295f565b9150612b3482846125ad565b915081905092915050565b6000612b4a826129a5565b9150612b5682846125ad565b915081905092915050565b6000602082019050612b76600083018461251d565b92915050565b6000608082019050612b91600083018761251d565b612b9e602083018661251d565b612bab60408301856129c8565b8181036060830152612bbd818461253b565b905095945050505050565b6000602082019050612bdd600083018461252c565b92915050565b60006020820190508181036000830152612bfd8184612574565b905092915050565b60006060820190508181036000830152612c1f8186612574565b9050612c2e60208301856129c8565b612c3b604083018461251d565b949350505050565b60006020820190508181036000830152612c5c816126a3565b9050919050565b60006020820190508181036000830152612c7c816126c6565b9050919050565b60006020820190508181036000830152612c9c816126e9565b9050919050565b60006020820190508181036000830152612cbc8161270c565b9050919050565b60006020820190508181036000830152612cdc8161272f565b9050919050565b60006020820190508181036000830152612cfc81612798565b9050919050565b60006020820190508181036000830152612d1c816127bb565b9050919050565b60006020820190508181036000830152612d3c816127de565b9050919050565b60006020820190508181036000830152612d5c81612801565b9050919050565b60006020820190508181036000830152612d7c81612847565b9050919050565b60006020820190508181036000830152612d9c8161286a565b9050919050565b60006020820190508181036000830152612dbc8161288d565b9050919050565b60006020820190508181036000830152612ddc816128d3565b9050919050565b60006020820190508181036000830152612dfc816128f6565b9050919050565b60006020820190508181036000830152612e1c8161293c565b9050919050565b60006020820190508181036000830152612e3c81612982565b9050919050565b6000602082019050612e5860008301846129c8565b92915050565b6000612e68612e79565b9050612e748282613109565b919050565b6000604051905090565b600067ffffffffffffffff821115612e9e57612e9d613241565b5b612ea782613270565b9050602081019050919050565b60008190508160005260206000209050919050565b600081519050919050565b600081519050919050565b600082825260208201905092915050565b600082825260208201905092915050565b600081905092915050565b6000612f178261308b565b9150612f228361308b565b9250827fffffffffffffffffffffffffffffffffffffffffffffffffffffffffffffffff03821115612f5757612f566131b4565b5b828201905092915050565b6000612f6d8261308b565b9150612f788361308b565b925082612f8857612f876131e3565b5b828204905092915050565b6000612f9e8261308b565b9150612fa98361308b565b9250817fffffffffffffffffffffffffffffffffffffffffffffffffffffffffffffffff0483118215151615612fe257612fe16131b4565b5b828202905092915050565b6000612ff88261308b565b91506130038361308b565b925082821015613016576130156131b4565b5b828203905092915050565b600061302c8261306b565b9050919050565b60008115159050919050565b60007fffffffff0000000000000000000000000000000000000000000000000000000082169050919050565b600073ffffffffffffffffffffffffffffffffffffffff82169050919050565b6000819050919050565b82818337600083830152505050565b60005b838110156130c25780820151818401526020810190506130a7565b838111156130d1576000848401525b50505050565b600060028204905060018216806130ef57607f821691505b6020821081141561310357613102613212565b5b50919050565b61311282613270565b810181811067ffffffffffffffff8211171561313157613130613241565b5b80604052505050565b60006131458261308b565b91507fffffffffffffffffffffffffffffffffffffffffffffffffffffffffffffffff821415613178576131776131b4565b5b600182019050919050565b600061318e8261308b565b91506131998361308b565b9250826131a9576131a86131e3565b5b828206905092915050565b7f4e487b7100000000000000000000000000000000000000000000000000000000600052601160045260246000fd5b7f4e487b7100000000000000000000000000000000000000000000000000000000600052601260045260246000fd5b7f4e487b7100000000000000000000000000000000000000000000000000000000600052602260045260246000fd5b7f4e487b7100000000000000000000000000000000000000000000000000000000600052604160045260246000fd5b6000601f19601f8301169050919050565b7f46495253545f454d4f4a49000000000000000000000000000000000000000000600082015250565b7f68747470733a2f2f6e6674707265766965772e30786465762e636f6465732f3f60008201527f636f64653d000000000000000000000000000000000000000000000000000000602082015250565b7f4552433732313a207472616e7366657220746f206e6f6e20455243373231526560008201527f63656976657220696d706c656d656e7465720000000000000000000000000000602082015250565b7f4552433732313a20746f6b656e20616c7265616479206d696e74656400000000600082015250565b7f4552433732313a207472616e7366657220746f20746865207a65726f2061646460008201527f7265737300000000000000000000000000000000000000000000000000000000602082015250565b7f4552433732313a20617070726f766520746f2063616c6c657200000000000000600082015250565b7f4552433732313a206f70657261746f7220717565727920666f72206e6f6e657860008201527f697374656e7420746f6b656e0000000000000000000000000000000000000000602082015250565b7f54484952445f454d4f4a49000000000000000000000000000000000000000000600082015250565b7f3c2f746578743e3c2f7376673e00000000000000000000000000000000000000600082015250565b7f4552433732313a20617070726f76652063616c6c6572206973206e6f74206f7760008201527f6e6572206e6f7220617070726f76656420666f7220616c6c0000000000000000602082015250565b7f4552433732313a2062616c616e636520717565727920666f7220746865207a6560008201527f726f206164647265737300000000000000000000000000000000000000000000602082015250565b7f4552433732313a206f776e657220717565727920666f72206e6f6e657869737460008201527f656e7420746f6b656e0000000000000000000000000000000000000000000000602082015250565b7f45524337323155524953746f726167653a2055524920736574206f66206e6f6e60008201527f6578697374656e7420746f6b656e000000000000000000000000000000000000602082015250565b7f227d000000000000000000000000000000000000000000000000000000000000600082015250565b7f4552433732313a206d696e7420746f20746865207a65726f2061646472657373600082015250565b7f45524337323155524953746f726167653a2055524920717565727920666f722060008201527f6e6f6e6578697374656e7420746f6b656e000000000000000000000000000000602082015250565b7f4552433732313a20617070726f76656420717565727920666f72206e6f6e657860008201527f697374656e7420746f6b656e0000000000000000000000000000000000000000602082015250565b7f222c20226465736372697074696f6e223a2022412067656e65726f757320636f60008201527f6c6c656374696f6e206f6620656d6f6a6920747269706c6574732e222c20226960208201527f6d616765223a2022646174613a696d6167652f7376672b786d6c3b626173653660408201527f342c000000000000000000000000000000000000000000000000000000000000606082015250565b7f4552433732313a207472616e73666572206f6620746f6b656e2074686174206960008201527f73206e6f74206f776e0000000000000000000000000000000000000000000000602082015250565b7f4552433732314d657461646174613a2055524920717565727920666f72206e6f60008201527f6e6578697374656e7420746f6b656e0000000000000000000000000000000000602082015250565b7f7b226e616d65223a202200000000000000000000000000000000000000000000600082015250565b7f4552433732313a20617070726f76616c20746f2063757272656e74206f776e6560008201527f7200000000000000000000000000000000000000000000000000000000000000602082015250565b7f646174613a6170706c69636174696f6e2f6a736f6e3b6261736536342c000000600082015250565b7f4552433732313a207472616e736665722063616c6c6572206973206e6f74206f60008201527f776e6572206e6f7220617070726f766564000000000000000000000000000000602082015250565b7f5345434f4e445f454d4f4a490000000000000000000000000000000000000000600082015250565b61391181613021565b811461391c57600080fd5b50565b61392881613033565b811461393357600080fd5b50565b61393f8161303f565b811461394a57600080fd5b50565b6139568161308b565b811461396157600080fd5b5056fe416e204e465420772f20494420257320686173206265656e206d696e74656420746f2025734142434445464748494a4b4c4d4e4f505152535455565758595a6162636465666768696a6b6c6d6e6f707172737475767778797a303132333435363738392b2fa2646970667358221220482b13d9b628a912082ce1d8530831716706fde135ad18a10ee9f6c1a62f22c964736f6c634300080400333c73766720786d6c6e733d27687474703a2f2f7777772e77332e6f72672f323030302f73766727207072657365727665417370656374526174696f3d27784d696e594d696e206d656574272076696577426f783d273020302033353020333530273e3c7374796c653e2e62617365207b2066696c6c3a2077686974653b20666f6e742d66616d696c793a2073657269663b20666f6e742d73697a653a20323470783b207d3c2f7374796c653e3c726563742077696474683d273130302527206865696768743d2731303025272066696c6c3d27626c61636b27202f3e3c7465787420783d273530252720793d273530252720636c6173733d27626173652720646f6d696e616e742d626173656c696e653d276d6964646c652720746578742d616e63686f723d276d6964646c65273e",
    "linkReferences": {},
    "deployedLinkReferences": {}
}