{
  "_format": "hh-sol-artifact-1",
  "contractName": "NFT",
  "sourceName": "contracts/NFT.sol",
  "abi": [
    {
      "inputs": [],
      "stateMutability": "nonpayable",
      "type": "constructor"
    },
    {
      "anonymous": false,
      "inputs": [
        {
          "indexed": true,
          "internalType": "address",
          "name": "owner",
          "type": "address"
        },
        {
          "indexed": true,
          "internalType": "address",
          "name": "approved",
          "type": "address"
        },
        {
          "indexed": true,
          "internalType": "uint256",
          "name": "tokenId",
          "type": "uint256"
        }
      ],
      "name": "Approval",
      "type": "event"
    },
    {
      "anonymous": false,
      "inputs": [
        {
          "indexed": true,
          "internalType": "address",
          "name": "owner",
          "type": "address"
        },
        {
          "indexed": true,
          "internalType": "address",
          "name": "operator",
          "type": "address"
        },
        {
          "indexed": false,
          "internalType": "bool",
          "name": "approved",
          "type": "bool"
        }
      ],
      "name": "ApprovalForAll",
      "type": "event"
    },
    {
      "anonymous": false,
      "inputs": [
        {
          "indexed": false,
          "internalType": "address",
          "name": "sender",
          "type": "address"
        },
        {
          "indexed": false,
          "internalType": "uint256",
          "name": "tokenId",
          "type": "uint256"
        }
      ],
      "name": "NewNFTMinted",
      "type": "event"
    },
    {
      "anonymous": false,
      "inputs": [
        {
          "indexed": true,
          "internalType": "address",
          "name": "from",
          "type": "address"
        },
        {
          "indexed": true,
          "internalType": "address",
          "name": "to",
          "type": "address"
        },
        {
          "indexed": true,
          "internalType": "uint256",
          "name": "tokenId",
          "type": "uint256"
        }
      ],
      "name": "Transfer",
      "type": "event"
    },
    {
      "inputs": [
        {
          "internalType": "address",
          "name": "to",
          "type": "address"
        },
        {
          "internalType": "uint256",
          "name": "tokenId",
          "type": "uint256"
        }
      ],
      "name": "approve",
      "outputs": [],
      "stateMutability": "nonpayable",
      "type": "function"
    },
    {
      "inputs": [
        {
          "internalType": "address",
          "name": "owner",
          "type": "address"
        }
      ],
      "name": "balanceOf",
      "outputs": [
        {
          "internalType": "uint256",
          "name": "",
          "type": "uint256"
        }
      ],
      "stateMutability": "view",
      "type": "function"
    },
    {
      "inputs": [
        {
          "internalType": "uint256",
          "name": "tokenId",
          "type": "uint256"
        }
      ],
      "name": "getApproved",
      "outputs": [
        {
          "internalType": "address",
          "name": "",
          "type": "address"
        }
      ],
      "stateMutability": "view",
      "type": "function"
    },
    {
      "inputs": [
        {
          "internalType": "address",
          "name": "owner",
          "type": "address"
        },
        {
          "internalType": "address",
          "name": "operator",
          "type": "address"
        }
      ],
      "name": "isApprovedForAll",
      "outputs": [
        {
          "internalType": "bool",
          "name": "",
          "type": "bool"
        }
      ],
      "stateMutability": "view",
      "type": "function"
    },
    {
      "inputs": [],
      "name": "make",
      "outputs": [],
      "stateMutability": "nonpayable",
      "type": "function"
    },
    {
      "inputs": [],
      "name": "name",
      "outputs": [
        {
          "internalType": "string",
          "name": "",
          "type": "string"
        }
      ],
      "stateMutability": "view",
      "type": "function"
    },
    {
      "inputs": [
        {
          "internalType": "uint256",
          "name": "tokenId",
          "type": "uint256"
        }
      ],
      "name": "ownerOf",
      "outputs": [
        {
          "internalType": "address",
          "name": "",
          "type": "address"
        }
      ],
      "stateMutability": "view",
      "type": "function"
    },
    {
      "inputs": [
        {
          "internalType": "uint256",
          "name": "tokenId",
          "type": "uint256"
        }
      ],
      "name": "pickRandomAction",
      "outputs": [
        {
          "internalType": "string",
          "name": "",
          "type": "string"
        }
      ],
      "stateMutability": "view",
      "type": "function"
    },
    {
      "inputs": [
        {
          "internalType": "uint256",
          "name": "tokenId",
          "type": "uint256"
        }
      ],
      "name": "pickRandomFace",
      "outputs": [
        {
          "internalType": "string",
          "name": "",
          "type": "string"
        }
      ],
      "stateMutability": "view",
      "type": "function"
    },
    {
      "inputs": [
        {
          "internalType": "uint256",
          "name": "tokenId",
          "type": "uint256"
        }
      ],
      "name": "pickRandomTarget",
      "outputs": [
        {
          "internalType": "string",
          "name": "",
          "type": "string"
        }
      ],
      "stateMutability": "view",
      "type": "function"
    },
    {
      "inputs": [
        {
          "internalType": "address",
          "name": "from",
          "type": "address"
        },
        {
          "internalType": "address",
          "name": "to",
          "type": "address"
        },
        {
          "internalType": "uint256",
          "name": "tokenId",
          "type": "uint256"
        }
      ],
      "name": "safeTransferFrom",
      "outputs": [],
      "stateMutability": "nonpayable",
      "type": "function"
    },
    {
      "inputs": [
        {
          "internalType": "address",
          "name": "from",
          "type": "address"
        },
        {
          "internalType": "address",
          "name": "to",
          "type": "address"
        },
        {
          "internalType": "uint256",
          "name": "tokenId",
          "type": "uint256"
        },
        {
          "internalType": "bytes",
          "name": "_data",
          "type": "bytes"
        }
      ],
      "name": "safeTransferFrom",
      "outputs": [],
      "stateMutability": "nonpayable",
      "type": "function"
    },
    {
      "inputs": [
        {
          "internalType": "address",
          "name": "operator",
          "type": "address"
        },
        {
          "internalType": "bool",
          "name": "approved",
          "type": "bool"
        }
      ],
      "name": "setApprovalForAll",
      "outputs": [],
      "stateMutability": "nonpayable",
      "type": "function"
    },
    {
      "inputs": [
        {
          "internalType": "bytes4",
          "name": "interfaceId",
          "type": "bytes4"
        }
      ],
      "name": "supportsInterface",
      "outputs": [
        {
          "internalType": "bool",
          "name": "",
          "type": "bool"
        }
      ],
      "stateMutability": "view",
      "type": "function"
    },
    {
      "inputs": [],
      "name": "symbol",
      "outputs": [
        {
          "internalType": "string",
          "name": "",
          "type": "string"
        }
      ],
      "stateMutability": "view",
      "type": "function"
    },
    {
      "inputs": [
        {
          "internalType": "uint256",
          "name": "tokenId",
          "type": "uint256"
        }
      ],
      "name": "tokenURI",
      "outputs": [
        {
          "internalType": "string",
          "name": "",
          "type": "string"
        }
      ],
      "stateMutability": "view",
      "type": "function"
    },
    {
      "inputs": [
        {
          "internalType": "address",
          "name": "from",
          "type": "address"
        },
        {
          "internalType": "address",
          "name": "to",
          "type": "address"
        },
        {
          "internalType": "uint256",
          "name": "tokenId",
          "type": "uint256"
        }
      ],
      "name": "transferFrom",
      "outputs": [],
      "stateMutability": "nonpayable",
      "type": "function"
    }
  ],
  "bytecode": "0x608060405260405180610160016040528061012f8152602001620043a161012f913960089080519060200190620000389291906200067e565b506040518060c001604052806040518060400160405280600481526020017ff09f988d0000000000000000000000000000000000000000000000000000000081525081526020016040518060400160405280600481526020017ff09f98850000000000000000000000000000000000000000000000000000000081525081526020016040518060400160405280600481526020017ff09f98ab0000000000000000000000000000000000000000000000000000000081525081526020016040518060400160405280601181526020017ff09fa799f09f8fbce2808de29982efb88f00000000000000000000000000000081525081526020016040518060400160405280600481526020017ff09f98880000000000000000000000000000000000000000000000000000000081525081526020016040518060400160405280600481526020017ff09f91bd000000000000000000000000000000000000000000000000000000008152508152506009906006620001b69291906200070f565b506040518060c001604052806040518060400160405280600481526020017ff09f91850000000000000000000000000000000000000000000000000000000081525081526020016040518060400160405280600481526020017ff09f998f0000000000000000000000000000000000000000000000000000000081525081526020016040518060400160405280600481526020017ff09f99880000000000000000000000000000000000000000000000000000000081525081526020016040518060400160405280600481526020017ff09f9bb50000000000000000000000000000000000000000000000000000000081525081526020016040518060400160405280600481526020017ff09f92af0000000000000000000000000000000000000000000000000000000081525081526020016040518060400160405280601181526020017ff09f8f84f09f8fbce2808de29982efb88f000000000000000000000000000000815250815250600a906006620003349291906200070f565b506040518060c001604052806040518060400160405280600481526020017ff09f8da50000000000000000000000000000000000000000000000000000000081525081526020016040518060400160405280600481526020017ff09f8d8c0000000000000000000000000000000000000000000000000000000081525081526020016040518060400160405280600481526020017ff09faa900000000000000000000000000000000000000000000000000000000081525081526020016040518060400160405280600481526020017ff09f8cb50000000000000000000000000000000000000000000000000000000081525081526020016040518060400160405280600481526020017ff09fa6840000000000000000000000000000000000000000000000000000000081525081526020016040518060400160405280600481526020017ff09f908d00000000000000000000000000000000000000000000000000000000815250815250600b906006620004b29291906200070f565b50348015620004c057600080fd5b506040518060400160405280600b81526020017f547269706c65456d6f6a690000000000000000000000000000000000000000008152506040518060400160405280600781526020017f5452494d4f4a49000000000000000000000000000000000000000000000000008152508160009080519060200190620005459291906200067e565b5080600190805190602001906200055e9291906200067e565b505050620005ac6040518060400160405280601e81526020017f54686973206973206d79204e465420636f6e74726163742e2057686f61210000815250620005b260201b620012481760201c565b62000930565b6200065281604051602401620005c9919062000844565b6040516020818303038152906040527f41304fac000000000000000000000000000000000000000000000000000000007bffffffffffffffffffffffffffffffffffffffffffffffffffffffff19166020820180517bffffffffffffffffffffffffffffffffffffffffffffffffffffffff83818316178352505050506200065560201b60201c565b50565b60008151905060006a636f6e736f6c652e6c6f679050602083016000808483855afa5050505050565b8280546200068c90620008ba565b90600052602060002090601f016020900481019282620006b05760008555620006fc565b82601f10620006cb57805160ff1916838001178555620006fc565b82800160010185558215620006fc579182015b82811115620006fb578251825591602001919060010190620006de565b5b5090506200070b919062000776565b5090565b82805482825590600052602060002090810192821562000763579160200282015b8281111562000762578251829080519060200190620007519291906200067e565b509160200191906001019062000730565b5b50905062000772919062000795565b5090565b5b808211156200079157600081600090555060010162000777565b5090565b5b80821115620007b95760008181620007af9190620007bd565b5060010162000796565b5090565b508054620007cb90620008ba565b6000825580601f10620007df575062000800565b601f016020900490600052602060002090810190620007ff919062000776565b5b50565b6000620008108262000868565b6200081c818562000873565b93506200082e81856020860162000884565b62000839816200091f565b840191505092915050565b6000602082019050818103600083015262000860818462000803565b905092915050565b600081519050919050565b600082825260208201905092915050565b60005b83811015620008a457808201518184015260208101905062000887565b83811115620008b4576000848401525b50505050565b60006002820490506001821680620008d357607f821691505b60208210811415620008ea57620008e9620008f0565b5b50919050565b7f4e487b7100000000000000000000000000000000000000000000000000000000600052602260045260246000fd5b6000601f19601f8301169050919050565b613a6180620009406000396000f3fe608060405234801561001057600080fd5b506004361061010b5760003560e01c806370a08231116100a2578063ab1b1ddb11610071578063ab1b1ddb146102dc578063b88d4fde1461030c578063c6dad08214610328578063c87b56dd14610332578063e985e9c5146103625761010b565b806370a0823114610242578063742837071461027257806395d89b41146102a2578063a22cb465146102c05761010b565b8063095ea7b3116100de578063095ea7b3146101be57806323b872dd146101da57806342842e0e146101f65780636352211e146102125761010b565b806301ffc9a7146101105780630670cd961461014057806306fdde0314610170578063081812fc1461018e575b600080fd5b61012a600480360381019061012591906124db565b610392565b6040516101379190612c2a565b60405180910390f35b61015a6004803603810190610155919061252d565b610474565b6040516101679190612c45565b60405180910390f35b610178610592565b6040516101859190612c45565b60405180910390f35b6101a860048036038101906101a3919061252d565b610624565b6040516101b59190612b9a565b60405180910390f35b6101d860048036038101906101d3919061249f565b6106a9565b005b6101f460048036038101906101ef9190612399565b6107c1565b005b610210600480360381019061020b9190612399565b610821565b005b61022c6004803603810190610227919061252d565b610841565b6040516102399190612b9a565b60405180910390f35b61025c60048036038101906102579190612334565b6108f3565b6040516102699190612ea5565b60405180910390f35b61028c6004803603810190610287919061252d565b6109ab565b6040516102999190612c45565b60405180910390f35b6102aa610ac9565b6040516102b79190612c45565b60405180910390f35b6102da60048036038101906102d59190612463565b610b5b565b005b6102f660048036038101906102f1919061252d565b610cdc565b6040516103039190612c45565b60405180910390f35b610326600480360381019061032191906123e8565b610dfa565b005b610330610e5c565b005b61034c6004803603810190610347919061252d565b611062565b6040516103599190612c45565b60405180910390f35b61037c6004803603810190610377919061235d565b6111b4565b6040516103899190612c2a565b60405180910390f35b60007f80ac58cd000000000000000000000000000000000000000000000000000000007bffffffffffffffffffffffffffffffffffffffffffffffffffffffff1916827bffffffffffffffffffffffffffffffffffffffffffffffffffffffff1916148061045d57507f5b5e139f000000000000000000000000000000000000000000000000000000007bffffffffffffffffffffffffffffffffffffffffffffffffffffffff1916827bffffffffffffffffffffffffffffffffffffffffffffffffffffffff1916145b8061046d575061046c826112e1565b5b9050919050565b606060006104a86104848461134b565b6040516020016104949190612aef565b6040516020818303038152906040526114f8565b9050600b80549050816104bb91906131e5565b9050600b81815481106104f7577f4e487b7100000000000000000000000000000000000000000000000000000000600052603260045260246000fd5b90600052602060002001805461050c90613139565b80601f016020809104026020016040519081016040528092919081815260200182805461053890613139565b80156105855780601f1061055a57610100808354040283529160200191610585565b820191906000526020600020905b81548152906001019060200180831161056857829003601f168201915b5050505050915050919050565b6060600080546105a190613139565b80601f01602080910402602001604051908101604052809291908181526020018280546105cd90613139565b801561061a5780601f106105ef5761010080835404028352916020019161061a565b820191906000526020600020905b8154815290600101906020018083116105fd57829003601f168201915b5050505050905090565b600061062f8261152b565b61066e576040517f08c379a000000000000000000000000000000000000000000000000000000000815260040161066590612e05565b60405180910390fd5b6004600083815260200190815260200160002060009054906101000a900473ffffffffffffffffffffffffffffffffffffffff169050919050565b60006106b482610841565b90508073ffffffffffffffffffffffffffffffffffffffff168373ffffffffffffffffffffffffffffffffffffffff161415610725576040517f08c379a000000000000000000000000000000000000000000000000000000000815260040161071c90612e65565b60405180910390fd5b8073ffffffffffffffffffffffffffffffffffffffff16610744611597565b73ffffffffffffffffffffffffffffffffffffffff16148061077357506107728161076d611597565b6111b4565b5b6107b2576040517f08c379a00000000000000000000000000000000000000000000000000000000081526004016107a990612d45565b60405180910390fd5b6107bc838361159f565b505050565b6107d26107cc611597565b82611658565b610811576040517f08c379a000000000000000000000000000000000000000000000000000000000815260040161080890612e85565b60405180910390fd5b61081c838383611736565b505050565b61083c83838360405180602001604052806000815250610dfa565b505050565b6000806002600084815260200190815260200160002060009054906101000a900473ffffffffffffffffffffffffffffffffffffffff169050600073ffffffffffffffffffffffffffffffffffffffff168173ffffffffffffffffffffffffffffffffffffffff1614156108ea576040517f08c379a00000000000000000000000000000000000000000000000000000000081526004016108e190612d85565b60405180910390fd5b80915050919050565b60008073ffffffffffffffffffffffffffffffffffffffff168273ffffffffffffffffffffffffffffffffffffffff161415610964576040517f08c379a000000000000000000000000000000000000000000000000000000000815260040161095b90612d65565b60405180910390fd5b600360008373ffffffffffffffffffffffffffffffffffffffff1673ffffffffffffffffffffffffffffffffffffffff168152602001908152602001600020549050919050565b606060006109df6109bb8461134b565b6040516020016109cb9190612aab565b6040516020818303038152906040526114f8565b9050600980549050816109f291906131e5565b905060098181548110610a2e577f4e487b7100000000000000000000000000000000000000000000000000000000600052603260045260246000fd5b906000526020600020018054610a4390613139565b80601f0160208091040260200160405190810160405280929190818152602001828054610a6f90613139565b8015610abc5780601f10610a9157610100808354040283529160200191610abc565b820191906000526020600020905b815481529060010190602001808311610a9f57829003601f168201915b5050505050915050919050565b606060018054610ad890613139565b80601f0160208091040260200160405190810160405280929190818152602001828054610b0490613139565b8015610b515780601f10610b2657610100808354040283529160200191610b51565b820191906000526020600020905b815481529060010190602001808311610b3457829003601f168201915b5050505050905090565b610b63611597565b73ffffffffffffffffffffffffffffffffffffffff168273ffffffffffffffffffffffffffffffffffffffff161415610bd1576040517f08c379a0000000000000000000000000000000000000000000000000000000008152600401610bc890612d05565b60405180910390fd5b8060056000610bde611597565b73ffffffffffffffffffffffffffffffffffffffff1673ffffffffffffffffffffffffffffffffffffffff16815260200190815260200160002060008473ffffffffffffffffffffffffffffffffffffffff1673ffffffffffffffffffffffffffffffffffffffff16815260200190815260200160002060006101000a81548160ff0219169083151502179055508173ffffffffffffffffffffffffffffffffffffffff16610c8b611597565b73ffffffffffffffffffffffffffffffffffffffff167f17307eab39ab6107e8899845ad3d59bd9653f200f220920489ca2b5937696c3183604051610cd09190612c2a565b60405180910390a35050565b60606000610d10610cec8461134b565b604051602001610cfc9190612b78565b6040516020818303038152906040526114f8565b9050600a8054905081610d2391906131e5565b9050600a8181548110610d5f577f4e487b7100000000000000000000000000000000000000000000000000000000600052603260045260246000fd5b906000526020600020018054610d7490613139565b80601f0160208091040260200160405190810160405280929190818152602001828054610da090613139565b8015610ded5780601f10610dc257610100808354040283529160200191610ded565b820191906000526020600020905b815481529060010190602001808311610dd057829003601f168201915b5050505050915050919050565b610e0b610e05611597565b83611658565b610e4a576040517f08c379a0000000000000000000000000000000000000000000000000000000008152600401610e4190612e85565b60405180910390fd5b610e5684848484611992565b50505050565b6000610e6860076119ee565b90506000610e75826109ab565b90506000610e8283610cdc565b90506000610e8f84610474565b90506000838383604051602001610ea893929190612a4b565b60405160208183030381529060405290506000600882604051602001610ecf929190612a7c565b60405160208183030381529060405290506000610f1483610eef846119fc565b604051602001610f00929190612b11565b6040516020818303038152906040526119fc565b9050600081604051602001610f299190612b56565b6040516020818303038152906040529050610f786040518060400160405280601581526020017f0a2d2d2d2d2d2d2d2d2d2d2d2d2d2d2d2d2d2d2d2d0000000000000000000000815250611248565b610fa081604051602001610f8c9190612acd565b604051602081830303815290604052611248565b610fde6040518060400160405280601581526020017f2d2d2d2d2d2d2d2d2d2d2d2d2d2d2d2d2d2d2d2d0a0000000000000000000000815250611248565b610fe83389611bba565b610ff28882611bd8565b6110156040518060600160405280602581526020016139c7602591398933611c4c565b61101f6007611ceb565b7f1c05098ed1ff38e6238d2b1b04b2c7977d4c94ce651bda6473f9dba8dbf01da03389604051611050929190612c01565b60405180910390a15050505050505050565b606061106d8261152b565b6110ac576040517f08c379a00000000000000000000000000000000000000000000000000000000081526004016110a390612de5565b60405180910390fd5b60006006600084815260200190815260200160002080546110cc90613139565b80601f01602080910402602001604051908101604052809291908181526020018280546110f890613139565b80156111455780601f1061111a57610100808354040283529160200191611145565b820191906000526020600020905b81548152906001019060200180831161112857829003601f168201915b505050505090506000611156611d01565b905060008151141561116c5781925050506111af565b6000825111156111a1578082604051602001611189929190612a27565b604051602081830303815290604052925050506111af565b6111aa84611d18565b925050505b919050565b6000600560008473ffffffffffffffffffffffffffffffffffffffff1673ffffffffffffffffffffffffffffffffffffffff16815260200190815260200160002060008373ffffffffffffffffffffffffffffffffffffffff1673ffffffffffffffffffffffffffffffffffffffff16815260200190815260200160002060009054906101000a900460ff16905092915050565b6112de8160405160240161125c9190612c45565b6040516020818303038152906040527f41304fac000000000000000000000000000000000000000000000000000000007bffffffffffffffffffffffffffffffffffffffffffffffffffffffff19166020820180517bffffffffffffffffffffffffffffffffffffffffffffffffffffffff8381831617835250505050611dbf565b50565b60007f01ffc9a7000000000000000000000000000000000000000000000000000000007bffffffffffffffffffffffffffffffffffffffffffffffffffffffff1916827bffffffffffffffffffffffffffffffffffffffffffffffffffffffff1916149050919050565b60606000821415611393576040518060400160405280600181526020017f300000000000000000000000000000000000000000000000000000000000000081525090506114f3565b600082905060005b600082146113c55780806113ae9061319c565b915050600a826113be9190612fc4565b915061139b565b60008167ffffffffffffffff811115611407577f4e487b7100000000000000000000000000000000000000000000000000000000600052604160045260246000fd5b6040519080825280601f01601f1916602001820160405280156114395781602001600182028036833780820191505090505b5090505b600085146114ec57600182611452919061304f565b9150600a8561146191906131e5565b603061146d9190612f6e565b60f81b8183815181106114a9577f4e487b7100000000000000000000000000000000000000000000000000000000600052603260045260246000fd5b60200101907effffffffffffffffffffffffffffffffffffffffffffffffffffffffffffff1916908160001a905350600a856114e59190612fc4565b945061143d565b8093505050505b919050565b60008160405160200161150b9190612a10565b6040516020818303038152906040528051906020012060001c9050919050565b60008073ffffffffffffffffffffffffffffffffffffffff166002600084815260200190815260200160002060009054906101000a900473ffffffffffffffffffffffffffffffffffffffff1673ffffffffffffffffffffffffffffffffffffffff1614159050919050565b600033905090565b816004600083815260200190815260200160002060006101000a81548173ffffffffffffffffffffffffffffffffffffffff021916908373ffffffffffffffffffffffffffffffffffffffff160217905550808273ffffffffffffffffffffffffffffffffffffffff1661161283610841565b73ffffffffffffffffffffffffffffffffffffffff167f8c5be1e5ebec7d5bd14f71427d1e84f3dd0314c0f7b2291e5b200ac8c7c3b92560405160405180910390a45050565b60006116638261152b565b6116a2576040517f08c379a000000000000000000000000000000000000000000000000000000000815260040161169990612d25565b60405180910390fd5b60006116ad83610841565b90508073ffffffffffffffffffffffffffffffffffffffff168473ffffffffffffffffffffffffffffffffffffffff16148061171c57508373ffffffffffffffffffffffffffffffffffffffff1661170484610624565b73ffffffffffffffffffffffffffffffffffffffff16145b8061172d575061172c81856111b4565b5b91505092915050565b8273ffffffffffffffffffffffffffffffffffffffff1661175682610841565b73ffffffffffffffffffffffffffffffffffffffff16146117ac576040517f08c379a00000000000000000000000000000000000000000000000000000000081526004016117a390612e25565b60405180910390fd5b600073ffffffffffffffffffffffffffffffffffffffff168273ffffffffffffffffffffffffffffffffffffffff16141561181c576040517f08c379a000000000000000000000000000000000000000000000000000000000815260040161181390612ce5565b60405180910390fd5b611827838383611de8565b61183260008261159f565b6001600360008573ffffffffffffffffffffffffffffffffffffffff1673ffffffffffffffffffffffffffffffffffffffff1681526020019081526020016000206000828254611882919061304f565b925050819055506001600360008473ffffffffffffffffffffffffffffffffffffffff1673ffffffffffffffffffffffffffffffffffffffff16815260200190815260200160002060008282546118d99190612f6e565b92505081905550816002600083815260200190815260200160002060006101000a81548173ffffffffffffffffffffffffffffffffffffffff021916908373ffffffffffffffffffffffffffffffffffffffff160217905550808273ffffffffffffffffffffffffffffffffffffffff168473ffffffffffffffffffffffffffffffffffffffff167fddf252ad1be2c89b69c2b068fc378daa952ba7f163c4a11628f55a4df523b3ef60405160405180910390a4505050565b61199d848484611736565b6119a984848484611ded565b6119e8576040517f08c379a00000000000000000000000000000000000000000000000000000000081526004016119df90612ca5565b60405180910390fd5b50505050565b600081600001549050919050565b60606000825190506000811415611a255760405180602001604052806000815250915050611bb5565b60006003600283611a369190612f6e565b611a409190612fc4565b6004611a4c9190612ff5565b90506000602082611a5d9190612f6e565b67ffffffffffffffff811115611a9c577f4e487b7100000000000000000000000000000000000000000000000000000000600052604160045260246000fd5b6040519080825280601f01601f191660200182016040528015611ace5781602001600182028036833780820191505090505b50905060006040518060600160405280604081526020016139ec604091399050600181016020830160005b86811015611b725760038101905062ffffff818a015116603f8160121c168401518060081b905060ff603f83600c1c1686015116810190508060081b905060ff603f8360061c1686015116810190508060081b905060ff603f831686015116810190508060e01b90508084526004840193505050611af9565b506003860660018114611b8c5760028114611b9c57611ba7565b613d3d60f01b6002830352611ba7565b603d60f81b60018303525b508484525050819450505050505b919050565b611bd4828260405180602001604052806000815250611f84565b5050565b611be18261152b565b611c20576040517f08c379a0000000000000000000000000000000000000000000000000000000008152600401611c1790612da5565b60405180910390fd5b80600660008481526020019081526020016000209080519060200190611c479291906121c0565b505050565b611ce6838383604051602401611c6493929190612c67565b6040516020818303038152906040527fe3849f79000000000000000000000000000000000000000000000000000000007bffffffffffffffffffffffffffffffffffffffffffffffffffffffff19166020820180517bffffffffffffffffffffffffffffffffffffffffffffffffffffffff8381831617835250505050611dbf565b505050565b6001816000016000828254019250508190555050565b606060405180602001604052806000815250905090565b6060611d238261152b565b611d62576040517f08c379a0000000000000000000000000000000000000000000000000000000008152600401611d5990612e45565b60405180910390fd5b6000611d6c611d01565b90506000815111611d8c5760405180602001604052806000815250611db7565b80611d968461134b565b604051602001611da7929190612a27565b6040516020818303038152906040525b915050919050565b60008151905060006a636f6e736f6c652e6c6f679050602083016000808483855afa5050505050565b505050565b6000611e0e8473ffffffffffffffffffffffffffffffffffffffff16611fdf565b15611f77578373ffffffffffffffffffffffffffffffffffffffff1663150b7a02611e37611597565b8786866040518563ffffffff1660e01b8152600401611e599493929190612bb5565b602060405180830381600087803b158015611e7357600080fd5b505af1925050508015611ea457506040513d601f19601f82011682018060405250810190611ea19190612504565b60015b611f27573d8060008114611ed4576040519150601f19603f3d011682016040523d82523d6000602084013e611ed9565b606091505b50600081511415611f1f576040517f08c379a0000000000000000000000000000000000000000000000000000000008152600401611f1690612ca5565b60405180910390fd5b805181602001fd5b63150b7a0260e01b7bffffffffffffffffffffffffffffffffffffffffffffffffffffffff1916817bffffffffffffffffffffffffffffffffffffffffffffffffffffffff191614915050611f7c565b600190505b949350505050565b611f8e8383611ff2565b611f9b6000848484611ded565b611fda576040517f08c379a0000000000000000000000000000000000000000000000000000000008152600401611fd190612ca5565b60405180910390fd5b505050565b600080823b905060008111915050919050565b600073ffffffffffffffffffffffffffffffffffffffff168273ffffffffffffffffffffffffffffffffffffffff161415612062576040517f08c379a000000000000000000000000000000000000000000000000000000000815260040161205990612dc5565b60405180910390fd5b61206b8161152b565b156120ab576040517f08c379a00000000000000000000000000000000000000000000000000000000081526004016120a290612cc5565b60405180910390fd5b6120b760008383611de8565b6001600360008473ffffffffffffffffffffffffffffffffffffffff1673ffffffffffffffffffffffffffffffffffffffff16815260200190815260200160002060008282546121079190612f6e565b92505081905550816002600083815260200190815260200160002060006101000a81548173ffffffffffffffffffffffffffffffffffffffff021916908373ffffffffffffffffffffffffffffffffffffffff160217905550808273ffffffffffffffffffffffffffffffffffffffff16600073ffffffffffffffffffffffffffffffffffffffff167fddf252ad1be2c89b69c2b068fc378daa952ba7f163c4a11628f55a4df523b3ef60405160405180910390a45050565b8280546121cc90613139565b90600052602060002090601f0160209004810192826121ee5760008555612235565b82601f1061220757805160ff1916838001178555612235565b82800160010185558215612235579182015b82811115612234578251825591602001919060010190612219565b5b5090506122429190612246565b5090565b5b8082111561225f576000816000905550600101612247565b5090565b600061227661227184612ee5565b612ec0565b90508281526020810184848401111561228e57600080fd5b6122998482856130f7565b509392505050565b6000813590506122b08161396a565b92915050565b6000813590506122c581613981565b92915050565b6000813590506122da81613998565b92915050565b6000815190506122ef81613998565b92915050565b600082601f83011261230657600080fd5b8135612316848260208601612263565b91505092915050565b60008135905061232e816139af565b92915050565b60006020828403121561234657600080fd5b6000612354848285016122a1565b91505092915050565b6000806040838503121561237057600080fd5b600061237e858286016122a1565b925050602061238f858286016122a1565b9150509250929050565b6000806000606084860312156123ae57600080fd5b60006123bc868287016122a1565b93505060206123cd868287016122a1565b92505060406123de8682870161231f565b9150509250925092565b600080600080608085870312156123fe57600080fd5b600061240c878288016122a1565b945050602061241d878288016122a1565b935050604061242e8782880161231f565b925050606085013567ffffffffffffffff81111561244b57600080fd5b612457878288016122f5565b91505092959194509250565b6000806040838503121561247657600080fd5b6000612484858286016122a1565b9250506020612495858286016122b6565b9150509250929050565b600080604083850312156124b257600080fd5b60006124c0858286016122a1565b92505060206124d18582860161231f565b9150509250929050565b6000602082840312156124ed57600080fd5b60006124fb848285016122cb565b91505092915050565b60006020828403121561251657600080fd5b6000612524848285016122e0565b91505092915050565b60006020828403121561253f57600080fd5b600061254d8482850161231f565b91505092915050565b61255f81613083565b82525050565b61256e81613095565b82525050565b600061257f82612f2b565b6125898185612f41565b9350612599818560208601613106565b6125a2816132d2565b840191505092915050565b60006125b882612f36565b6125c28185612f52565b93506125d2818560208601613106565b6125db816132d2565b840191505092915050565b60006125f182612f36565b6125fb8185612f63565b935061260b818560208601613106565b80840191505092915050565b6000815461262481613139565b61262e8186612f63565b94506001821660008114612649576001811461265a5761268d565b60ff1983168652818601935061268d565b61266385612f16565b60005b8381101561268557815481890152600182019150602081019050612666565b838801955050505b50505092915050565b60006126a3600b83612f63565b91506126ae826132e3565b600b82019050919050565b60006126c6602583612f63565b91506126d18261330c565b602582019050919050565b60006126e9603283612f52565b91506126f48261335b565b604082019050919050565b600061270c601c83612f52565b9150612717826133aa565b602082019050919050565b600061272f602483612f52565b915061273a826133d3565b604082019050919050565b6000612752601983612f52565b915061275d82613422565b602082019050919050565b6000612775602c83612f52565b91506127808261344b565b604082019050919050565b6000612798600b83612f63565b91506127a38261349a565b600b82019050919050565b60006127bb600d83612f63565b91506127c6826134c3565b600d82019050919050565b60006127de603883612f52565b91506127e9826134ec565b604082019050919050565b6000612801602a83612f52565b915061280c8261353b565b604082019050919050565b6000612824602983612f52565b915061282f8261358a565b604082019050919050565b6000612847602e83612f52565b9150612852826135d9565b604082019050919050565b600061286a600283612f63565b915061287582613628565b600282019050919050565b600061288d602083612f52565b915061289882613651565b602082019050919050565b60006128b0603183612f52565b91506128bb8261367a565b604082019050919050565b60006128d3602c83612f52565b91506128de826136c9565b604082019050919050565b60006128f6606283612f63565b915061290182613718565b606282019050919050565b6000612919602983612f52565b9150612924826137b3565b604082019050919050565b600061293c602f83612f52565b915061294782613802565b604082019050919050565b600061295f600a83612f63565b915061296a82613851565b600a82019050919050565b6000612982602183612f52565b915061298d8261387a565b604082019050919050565b60006129a5601d83612f63565b91506129b0826138c9565b601d82019050919050565b60006129c8603183612f52565b91506129d3826138f2565b604082019050919050565b60006129eb600c83612f63565b91506129f682613941565b600c82019050919050565b612a0a816130ed565b82525050565b6000612a1c82846125e6565b915081905092915050565b6000612a3382856125e6565b9150612a3f82846125e6565b91508190509392505050565b6000612a5782866125e6565b9150612a6382856125e6565b9150612a6f82846125e6565b9150819050949350505050565b6000612a888285612617565b9150612a9482846125e6565b9150612a9f826127ae565b91508190509392505050565b6000612ab682612696565b9150612ac282846125e6565b915081905092915050565b6000612ad8826126b9565b9150612ae482846125e6565b915081905092915050565b6000612afa8261278b565b9150612b0682846125e6565b915081905092915050565b6000612b1c82612952565b9150612b2882856125e6565b9150612b33826128e9565b9150612b3f82846125e6565b9150612b4a8261285d565b91508190509392505050565b6000612b6182612998565b9150612b6d82846125e6565b915081905092915050565b6000612b83826129de565b9150612b8f82846125e6565b915081905092915050565b6000602082019050612baf6000830184612556565b92915050565b6000608082019050612bca6000830187612556565b612bd76020830186612556565b612be46040830185612a01565b8181036060830152612bf68184612574565b905095945050505050565b6000604082019050612c166000830185612556565b612c236020830184612a01565b9392505050565b6000602082019050612c3f6000830184612565565b92915050565b60006020820190508181036000830152612c5f81846125ad565b905092915050565b60006060820190508181036000830152612c8181866125ad565b9050612c906020830185612a01565b612c9d6040830184612556565b949350505050565b60006020820190508181036000830152612cbe816126dc565b9050919050565b60006020820190508181036000830152612cde816126ff565b9050919050565b60006020820190508181036000830152612cfe81612722565b9050919050565b60006020820190508181036000830152612d1e81612745565b9050919050565b60006020820190508181036000830152612d3e81612768565b9050919050565b60006020820190508181036000830152612d5e816127d1565b9050919050565b60006020820190508181036000830152612d7e816127f4565b9050919050565b60006020820190508181036000830152612d9e81612817565b9050919050565b60006020820190508181036000830152612dbe8161283a565b9050919050565b60006020820190508181036000830152612dde81612880565b9050919050565b60006020820190508181036000830152612dfe816128a3565b9050919050565b60006020820190508181036000830152612e1e816128c6565b9050919050565b60006020820190508181036000830152612e3e8161290c565b9050919050565b60006020820190508181036000830152612e5e8161292f565b9050919050565b60006020820190508181036000830152612e7e81612975565b9050919050565b60006020820190508181036000830152612e9e816129bb565b9050919050565b6000602082019050612eba6000830184612a01565b92915050565b6000612eca612edb565b9050612ed6828261316b565b919050565b6000604051905090565b600067ffffffffffffffff821115612f0057612eff6132a3565b5b612f09826132d2565b9050602081019050919050565b60008190508160005260206000209050919050565b600081519050919050565b600081519050919050565b600082825260208201905092915050565b600082825260208201905092915050565b600081905092915050565b6000612f79826130ed565b9150612f84836130ed565b9250827fffffffffffffffffffffffffffffffffffffffffffffffffffffffffffffffff03821115612fb957612fb8613216565b5b828201905092915050565b6000612fcf826130ed565b9150612fda836130ed565b925082612fea57612fe9613245565b5b828204905092915050565b6000613000826130ed565b915061300b836130ed565b9250817fffffffffffffffffffffffffffffffffffffffffffffffffffffffffffffffff048311821515161561304457613043613216565b5b828202905092915050565b600061305a826130ed565b9150613065836130ed565b92508282101561307857613077613216565b5b828203905092915050565b600061308e826130cd565b9050919050565b60008115159050919050565b60007fffffffff0000000000000000000000000000000000000000000000000000000082169050919050565b600073ffffffffffffffffffffffffffffffffffffffff82169050919050565b6000819050919050565b82818337600083830152505050565b60005b83811015613124578082015181840152602081019050613109565b83811115613133576000848401525b50505050565b6000600282049050600182168061315157607f821691505b6020821081141561316557613164613274565b5b50919050565b613174826132d2565b810181811067ffffffffffffffff82111715613193576131926132a3565b5b80604052505050565b60006131a7826130ed565b91507fffffffffffffffffffffffffffffffffffffffffffffffffffffffffffffffff8214156131da576131d9613216565b5b600182019050919050565b60006131f0826130ed565b91506131fb836130ed565b92508261320b5761320a613245565b5b828206905092915050565b7f4e487b7100000000000000000000000000000000000000000000000000000000600052601160045260246000fd5b7f4e487b7100000000000000000000000000000000000000000000000000000000600052601260045260246000fd5b7f4e487b7100000000000000000000000000000000000000000000000000000000600052602260045260246000fd5b7f4e487b7100000000000000000000000000000000000000000000000000000000600052604160045260246000fd5b6000601f19601f8301169050919050565b7f46495253545f454d4f4a49000000000000000000000000000000000000000000600082015250565b7f68747470733a2f2f6e6674707265766965772e30786465762e636f6465732f3f60008201527f636f64653d000000000000000000000000000000000000000000000000000000602082015250565b7f4552433732313a207472616e7366657220746f206e6f6e20455243373231526560008201527f63656976657220696d706c656d656e7465720000000000000000000000000000602082015250565b7f4552433732313a20746f6b656e20616c7265616479206d696e74656400000000600082015250565b7f4552433732313a207472616e7366657220746f20746865207a65726f2061646460008201527f7265737300000000000000000000000000000000000000000000000000000000602082015250565b7f4552433732313a20617070726f766520746f2063616c6c657200000000000000600082015250565b7f4552433732313a206f70657261746f7220717565727920666f72206e6f6e657860008201527f697374656e7420746f6b656e0000000000000000000000000000000000000000602082015250565b7f54484952445f454d4f4a49000000000000000000000000000000000000000000600082015250565b7f3c2f746578743e3c2f7376673e00000000000000000000000000000000000000600082015250565b7f4552433732313a20617070726f76652063616c6c6572206973206e6f74206f7760008201527f6e6572206e6f7220617070726f76656420666f7220616c6c0000000000000000602082015250565b7f4552433732313a2062616c616e636520717565727920666f7220746865207a6560008201527f726f206164647265737300000000000000000000000000000000000000000000602082015250565b7f4552433732313a206f776e657220717565727920666f72206e6f6e657869737460008201527f656e7420746f6b656e0000000000000000000000000000000000000000000000602082015250565b7f45524337323155524953746f726167653a2055524920736574206f66206e6f6e60008201527f6578697374656e7420746f6b656e000000000000000000000000000000000000602082015250565b7f227d000000000000000000000000000000000000000000000000000000000000600082015250565b7f4552433732313a206d696e7420746f20746865207a65726f2061646472657373600082015250565b7f45524337323155524953746f726167653a2055524920717565727920666f722060008201527f6e6f6e6578697374656e7420746f6b656e000000000000000000000000000000602082015250565b7f4552433732313a20617070726f76656420717565727920666f72206e6f6e657860008201527f697374656e7420746f6b656e0000000000000000000000000000000000000000602082015250565b7f222c20226465736372697074696f6e223a2022412067656e65726f757320636f60008201527f6c6c656374696f6e206f6620656d6f6a6920747269706c6574732e222c20226960208201527f6d616765223a2022646174613a696d6167652f7376672b786d6c3b626173653660408201527f342c000000000000000000000000000000000000000000000000000000000000606082015250565b7f4552433732313a207472616e73666572206f6620746f6b656e2074686174206960008201527f73206e6f74206f776e0000000000000000000000000000000000000000000000602082015250565b7f4552433732314d657461646174613a2055524920717565727920666f72206e6f60008201527f6e6578697374656e7420746f6b656e0000000000000000000000000000000000602082015250565b7f7b226e616d65223a202200000000000000000000000000000000000000000000600082015250565b7f4552433732313a20617070726f76616c20746f2063757272656e74206f776e6560008201527f7200000000000000000000000000000000000000000000000000000000000000602082015250565b7f646174613a6170706c69636174696f6e2f6a736f6e3b6261736536342c000000600082015250565b7f4552433732313a207472616e736665722063616c6c6572206973206e6f74206f60008201527f776e6572206e6f7220617070726f766564000000000000000000000000000000602082015250565b7f5345434f4e445f454d4f4a490000000000000000000000000000000000000000600082015250565b61397381613083565b811461397e57600080fd5b50565b61398a81613095565b811461399557600080fd5b50565b6139a1816130a1565b81146139ac57600080fd5b50565b6139b8816130ed565b81146139c357600080fd5b5056fe416e204e465420772f20494420257320686173206265656e206d696e74656420746f2025734142434445464748494a4b4c4d4e4f505152535455565758595a6162636465666768696a6b6c6d6e6f707172737475767778797a303132333435363738392b2fa2646970667358221220d025401dcc29896e8eebd95ab7044faa53d34aacbafa44a12b84e45aa5842ce364736f6c634300080400333c73766720786d6c6e733d27687474703a2f2f7777772e77332e6f72672f323030302f73766727207072657365727665417370656374526174696f3d27784d696e594d696e206d656574272076696577426f783d273020302033353020333530273e3c7374796c653e2e62617365207b2066696c6c3a2077686974653b20666f6e742d66616d696c793a2073657269663b20666f6e742d73697a653a20323470783b207d3c2f7374796c653e3c726563742077696474683d273130302527206865696768743d2731303025272066696c6c3d27626c61636b27202f3e3c7465787420783d273530252720793d273530252720636c6173733d27626173652720646f6d696e616e742d626173656c696e653d276d6964646c652720746578742d616e63686f723d276d6964646c65273e",
  "linkReferences": {},
  "deployedLinkReferences": {}
}